:020000040800F2
:10000000C0190020C1020008C72D0008FB2C000801
:10001000C52D0008EF1E000839310008000000005F
:10002000000000000000000000000000CB2D0008D0
:10003000511F000800000000C92D0008CD2D000848
:10004000DB020008DB020008DB020008DB0200081C
:10005000DB020008DB020008DB020008DB0200080C
:10006000DB020008DB020008DB020008DB020008FC
:10007000DB020008DB020008DB020008DB020008EC
:10008000DB020008DB020008DB020008DB020008DC
:10009000DB020008DB020008DB020008DB020008CC
:1000A000DB020008DB020008DB020008DB020008BC
:1000B000DB020008DB020008DB020008DB020008AC
:1000C000DB020008DB020008DB020008DB0200089C
:1000D000DB020008DB020008DB020008DB0200088C
:1000E000DB020008DB020008DB020008DB0200087C
:1000F000DB020008DB020008DB020008DB0200086C
:10010000DB020008DB020008DB020008DB0200085B
:10011000DB020008DB020008DB020008DB0200084B
:10012000DB020008DB020008DB020008DB0200083B
:10013000DB020008DB020008DB020008DB0200082B
:10014000DB020008DB020008DB020008DB0200081B
:10015000DB020008DB020008DB020008DB0200080B
:10016000DB020008DB020008DB020008DB020008FB
:10017000DB020008DB020008DB02000800000000D0
:10018000DB020008DB020008DB020008DB020008DB
:10019000DB020008DB020008DB020008DB020008CB
:1001A000DB020008DB020008DB02000800F002F8B6
:1001B00000F077F80AA090E8000C82448344AAF18A
:1001C0000107DA4501D100F06CF8AFF2090EBAE888
:1001D0000F0013F0010F18BFFB1A43F0010318477B
:1001E0008C540000AC5400000A444FF0000C10F88E
:1001F000013B13F0070408BF10F8014B1D1108BFA5
:1002000010F8015B641E05D010F8016B641E01F844
:10021000016BF9D113F0080F1EBF10F8014BAD1C94
:100220000C1B09D16D1E58BF01F801CBFAD505E0B2
:1002300014F8016B01F8016B6D1EF9D59142D6D30C
:10024000704700000023002400250026103A28BF34
:1002500078C1FBD8520728BF30C148BF0B60704738
:10026000662904F0D385642900F04E81732900F0DB
:100270007785002070471FB504F0C3FD9DE803009B
:1002800000F0BEFA00F086FD04000020002104F01A
:100290002BFDE06000F0B4FE1FBD10B500F019FFAB
:1002A00010BD00F084FF1146FFF7E5FF04F012FBDC
:1002B00001F062F803B4FFF7F0FF03BC01F0DAF8D5
:1002C0000948804709480047FEE7FEE7FEE7FEE7EA
:1002D000FEE7FEE7FEE7FEE7FEE7FEE70448054926
:1002E000054A064B70470000712E0008AD0100085A
:1002F000C0090020C0190020C0110020C01100203A
:1003000070B5064600F060FA056806F10B0020F0B3
:100310000704B4429CBF002070BD2B466A68BAB186
:100320001068A04210D304F1080188423CBF506815
:10033000586007D35168101941601168091B0160AA
:1003400058601460101D70BD13465268002AE7D132
:100350002146284600F040FA0028DED170BD70B575
:100360000446051F00F030FA0068002C14BF4468F2
:1003700070BD002C18BFAC423CBF20466468F8D367
:1003800001680A18AA4218BF456003D12A680546C9
:100390001144016028684119A1421CBF6C6070BD06
:1003A0006168696021680844286070BD53EA020CE6
:1003B00000F069802DE9F04B4FF00006002B1FBFC5
:1003C000B3FA83F503FA05F424FA05F65E4012BF8A
:1003D0001643B2FA82F502FA05F4C5F120051EBFF4
:1003E00022FA05FC44EA0C04203556EA044C4FEA94
:1003F000144418BF641C4FF000084FF000099042ED
:1004000071EB030C39D3002919BFB1FA81F701FA56
:1004100007F6B0FA80F700FA07F6C7F120071EBF0B
:1004200020FA07FC46EA0C062037B6FBF4FCA7EBE3
:100430000507103F07F01F0BCBF120060CFA0BFB52
:100440002CFA06F644BFB3460026202FA4BF5E4612
:100450004FF0000B5BEA060C08BF4FF0010B19EBE5
:100460000B09ABFB027C48EB0608C01B06FB02CC69
:100470000BFB03CC71EB0C01C1E70B460246414676
:100480004846BDE8F08B13B54FF000004FF0000177
:10049000AFF30080BDE81C40704700000FB4044972
:1004A00010B503AA029800F05FFC10BC5DF814FBC5
:1004B000B408002070B50C460546012A05D02878FE
:1004C000800600D5EA69002302E0012305E05B1CF9
:1004D000934202D2E05C0028F9D1A869E618C01A5C
:1004E000A861286A184428622846AFF3008004E017
:1004F000D5E9012114F8010B9047B442F8D32846FE
:10050000AFF3008070BD00002DE9F04106460024E5
:1005100010687529314616A510D0AFF30080002869
:1005200002DA404213A507E031688A0701D512A517
:1005300002E0490704D511A5012401E0AFF30080D2
:1005400000210A2206F1240709E0B0FBF2FCB0FB0F
:10055000F2F302FB1C00303078541846491C002886
:10056000F3D123462A463046BDE8F04100F07EB97B
:10057000000000002D0000002B0000002000000003
:100580002DE9F05F894604464FF0000ADFF824B1F8
:10059000FB44C0F820A02046E168884700287DD0B1
:1005A000252806D0D4E901219047206A401C20620A
:1005B000F1E700255F462046E16888472028064687
:1005C00007DB312E05D2B81910F8200C08B105430D
:1005D000F1E7A80701D525F00405C4F81CA0002701
:1005E000C4F818A02A2E09D0304603F045F838B3D5
:1005F00004EB8708303EC8F8186019E059F8041B6E
:10060000204604EB87029161E1688847012F064686
:1006100018D1E069002820DA25F020051DE0D8F87F
:10062000180000EB800006EB40003038C8F81800D6
:100630002046E1688847064603F01EF80028EED100
:10064000012F0AD02E2E08D12046E16888477F1C52
:100650000646022F45F02005C4DBA069002803DA16
:10066000404245F00105A061E80701D025F01005E2
:10067000A6B1A6F14100192802D8203645F400653C
:100680004A463146204625604D46FFF7E9FD60B1F8
:10069000012807D0ED1D25F0070000E007E000F17C
:1006A000080978E705F1040975E730467AE7206A1A
:1006B000BDE8F09FBC4F000040EA010310B59B0766
:1006C0000FD1042A0DD310C808C9121F9C42F8D0BC
:1006D00020BA19BA884201D9012010BD4FF0FF306D
:1006E00010BD1AB1D30703D0521C07E0002010BD83
:1006F00010F8013B11F8014B1B1B07D110F8013B0F
:1007000011F8014B1B1B01D1921EF1D1184610BDEF
:1007100010B5203AC0F00B80B1E81850203AA0E89C
:100720001850B1E81850A0E81850BFF4F5AF5FEAD0
:10073000027C24BFB1E81850A0E8185044BF18C983
:1007400018C0BDE810405FEA827C24BF51F8043B2A
:1007500040F8043B08BF7047D20728BF31F8023B7E
:1007600048BF11F8012B28BF20F8023B48BF00F812
:10077000012B70474FF0000200B513469446964691
:10078000203922BFA0E80C50A0E80C50B1F12001A4
:10079000BFF4F7AF090728BFA0E80C5048BF0CC052
:1007A0005DF804EB890028BF40F8042B08BF7047B0
:1007B00048BF20F8022B11F0804F18BF00F8012B22
:1007C00070477047704770470048704764090020C1
:1007D000704770477047704738B504460A46002096
:1007E0006946AFF30080002808BF38BD0246009973
:1007F000204600F0D7FA012038BD012000F09CBC53
:10080000F8B5AFF30080054600200C46102000BF6D
:100810000646A819A0420DD9324669460020AFF31A
:100820000080070008BF00F087FC0098A04218BFB6
:100830000546C419FFF7C8FF05600746F01D20F004
:1008400007004619284600F00AF8B44208BFF8BD70
:10085000A21B31463868BDE8F84000F0A3BA002179
:100860000160C0E901107047102070472DE9F04782
:100870000D4699469246044600F124080168880610
:1008800004D5E06921F01001216000E00120A842B8
:1008900001DD471B00E00027A1697A1902EB09007E
:1008A000081AA0612078C00602D42046AFF3008069
:1008B000002608E0D4E901211AF806009047206AD2
:1008C000401C761C20624E45F4DB2078C0060AD519
:1008D0002046AFF3008006E0D4E9012130209047A4
:1008E000206A401C2062381EA7F10107F4DC07E0F3
:1008F000D4E9012118F805009047206A401C2062C5
:10090000281EA5F10105F3DC2046AFF30080207816
:10091000000602D50220BDE8F0870120FBE7704702
:100920002DE9FF4F0C461E464FF0FF378BB0D2E942
:100930000001DDF860800A908A46C1F30A5505B9C6
:100940003D46002108464FF00000BAF1000F00F4C8
:10095000400005DA00EB80004FF4400101EA50004E
:100960004FEA9059B9F1010F00DDB9460A9850EAF3
:100970004A000ED044F61050A5F2FF3545432F141F
:10098000B8F1000F1ED07542291E1EDDC9F100020C
:100990001CE0B8F1010F4FF0000001D0302103E05E
:1009A000F24305E02154401CB042FBDB30460022FC
:1009B000002121540B99C1F80880C1E900200FB033
:1009C000BDE8F08FBD1B6D1CDEE74A4600DA6942C8
:1009D00006A800F09FFA06AB93E8070003AB83E894
:1009E000070050460A9900F0BAFE8DE80700A0F50E
:1009F00000501F3800900398002D0ADD42F21F01BD
:100A00004A460844002303A90390684601F023F9ED
:100A100009E0A0F500504A461F38002303A90390BF
:100A2000684601F02DF98DE807000004000C03D0A2
:100A30004FF0FF30410800E01046B8F1000F03D03E
:100A40000022009215461EE0751E05D400F0C4F980
:100A5000303262556D1EF9D5B3460122084302D0EB
:100A600000227F1C04E02078302801D100227F1E64
:100A7000002A099784D01DE0112D07DA00F0ACF9A7
:100A8000303262556D1C50EA0102F5D1084302D0A4
:100A90000098C8B10EE00021681E05E0235C625C8E
:100AA00063542254401E491C8142F7DBAB46A81B0D
:100AB000401E0990002004F80B000B98099AC0F81A
:100AC0000880C0E9002B7AE711264FF0000857E7AD
:100AD0002DE9F04F88460446D21D22F0070191B05F
:100AE000D1E90001CDE90A0102F027FB02460B988B
:100AF000C00F01D02D2007E02068810701D52B20F1
:100B000002E0202101EAC000032A099001D0072A4F
:100B100005DB03464146204600F0BCF90BE1207896
:100B2000800601D5E06900E00620B8F1650F814636
:100B300006D0B8F1660F18D0B8F1670F70D131E068
:100B40000020B9F1110F009001DB112301E009F140
:100B500001030AAA01A90CA8FFF7E2FEDDE90C7067
:100B6000002609F10105834647E001204B4600902D
:100B70004FF000470AAA01A90CA8FFF7D1FEDDE952
:100B80000DB00C995D46002610B909F101000D1851
:100B9000B9EB050003D4C0F1FF3609F10105A5EB5F
:100BA00009002BE0B9F1010F01DA4FF00109002033
:100BB000B9F1110F0090484601DD112300E0034612
:100BC0000AAA01A90CA8FFF7ABFEDDE90C704D469F
:100BD00000268346207800070AD4AB4500DA5D463C
:100BE00001A8012D04DD411911F8011C302907D09D
:100BF0004F4502DA17F1040F04DA012082460FE0B4
:100C00006D1EEEE7002F02DCED1B3E4403E0781C76
:100C1000A84200DD7D1CB81B00F1010A4FF000471F
:100C20002078000703D4AA4501DB4FF0FF3A0021EA
:100C3000B7F1004F0DF143088DF8431024D0022086
:100C40002B23002F01DA7F422D230A21021EA0F15F
:100C5000010000DC5FB197FBF1FC97FBF1F201FBB7
:100C60001C7C17460CF1300C08F801CDEEE7A8F11A
:100C7000010003702188090501D5452100E06521A7
:100C8000A0F1010800F8011C09980FA9A1EB0807C1
:100C9000FF1D00B10120411901EBEA70A169384440
:100CA000081A401EA0612078C00602D42046AFF387
:100CB0000080099828B1D4E901219047206A401C9E
:100CC00020622078C00622D52046AFF300801EE0C7
:100CD000002E04DBB34502DD01A8805D00E030207A
:100CE000D4E901219047206A401C2062761CAAF1B9
:100CF00001005FEA000A0AD100F04CF8C068016800
:100D0000405CD4E901219047206A401C2062281EE3
:100D1000A5F10105DCDC07E0D4E9012118F8010B9D
:100D20009047206A401C2062381EA7F10107F3DCBF
:100D30002046AFF30080032011B041E610B54369AF
:100D400013B1AFF3008001E0FFF7B4FB012010BD49
:100D5000127800F124010A7000224A700122EDE7A6
:100D600011684FF0FF32E9E7074B70B50D467B4441
:100D700000F07DF80446284600F03EF910B14FF02F
:100D8000FF3070BD204670BD233B00000048704717
:100D90005C090020004870477C090020004870472B
:100DA0005C090020034640688C46002818BF884232
:100DB0003CBF03464068F8D318681844884207D0FF
:100DC0000CF1030020F00700001D411A521A0146E1
:100DD000081D0A60FFF7C3BA30B5B0F10A024FEA46
:100DE000900E71F100034EEA817EB0EB0E0061EBD4
:100DF00091014FEA101E4EEA017E10EB0E0041EB0E
:100E000011114FEA102E4EEA016E10EB0E0041EB6D
:100E100011214FEA104E4EEA014E10EB0E0041EB4D
:100E20001141401841F100014FEAD00040EA417001
:100E30004FEAD10110EB80054FEA810444EA907437
:100E400044EB01046D1944EB0404521BA3414FF021
:100E5000000348BF0A3200D530BD401C41F10001FB
:100E600030BD000001694A1C02610878704700B576
:100E70008FB0CDE901310021059105497944CDE9D3
:100E8000031011466846FFF77BFB0FB000BD000062
:100E9000E5FFFFFF2DE9F0411F46044603260168E8
:100EA000072A01F4006004DB08B116A505E016A5C9
:100EB00003E008B115A500E015A521F010002060A1
:100EC000A069C01EA0610FB1401EA0612046AFF313
:100ED00000804FB1D4E9012138469047206A401C78
:100EE0002062C01C206206E0206AFAE7D4E90121F2
:100EF00015F8010B9047761EF8D22046AFF300801C
:100F0000BDE8F0814E414E006E616E00494E4600D4
:100F1000696E66002DE9F047814616468AB035486D
:100F200078440DC88DE80D0032487844801C03AC2D
:100F30000DC884E80D0041F69B300844372190FB32
:100F4000F1F290FBF1F5A5F1800501FB12041B3CC9
:100F500002D56442012000E00020DFF898A080461E
:100F60000027FA44AAF1BE0A0EE0E0070AD0324692
:100F7000684607EB470101230AEB810100F080FE80
:100F80008DE8070064107F1C002CEED1194F7F44C0
:100F9000AE3F19E0E80715D007EB04100DF1180A71
:100FA00090E80E008AE80E00C068F04201D198195E
:100FB00008903246012306A903A800F061FE03ABA6
:100FC00083E807006D10641C002DE3D14FF001038E
:100FD00032466946B8F1000F03A802D000F03BFE8C
:100FE00001E000F04DFEC9E90001C9F808200AB08F
:100FF000BDE8F087BC460000007B00F08000704731
:1010000010B542485421FFF7B5FB41485421FFF782
:10101000B1FB40485421FFF7ADFB3F493B483C4AF8
:101020003F4B08603D490A603A491960531C03650B
:10103000481C1065012008653B48344A39A17844B2
:1010400000F0FEF820B9384878440A3800F0A2F9D8
:1010500037482F4A35A1784400F0F2F820B93448D7
:1010600078440A3800F096F932482A4A2FA1784489
:1010700000F0E6F820B92F4878440A3800F08AF9E1
:1010800040232248DC000021224600F0B5F820B1C0
:1010900025487844543800F07DF91D482246402305
:1010A000002100F0A9F820B121487844543800F01C
:1010B00071F9184822461023002100F09DF80028FD
:1010C00006D01C487844BDE81040563800F062B99C
:1010D00010BD104870B5006D20F001040B4800F001
:1010E00025F90B4800F022F90A4800F01FF909E041
:1010F000206D20F00105204600F018F92046FFF78A
:101100002EF92C46002CF3D170BD000060080020A1
:10111000B408002008090020F0060020F406002092
:10112000F806002072000000B645000077000000BD
:10113000A24500008E45000010B500F033F9BDE86F
:10114000104000F022B90EB5CDE9000100F0C0FA60
:10115000029069460120ABBE0EBD08B569460090FD
:101160000220ABBE08BD1FB58DE80700694605200B
:10117000ABBE04B010BD1FB58DE80F006946062058
:10118000ABBEF6E708B5694600900920ABBE08BDC6
:101190001CB5CDE9000169460A20ABBE1CBD7047F5
:1011A00008B5694600900C20ABBE08BD7047754677
:1011B000FFF7ECFDAE4605006946534620F00700F8
:1011C000854618B020B5FFF789F8BDE820404FF0FC
:1011D00000064FF000074FF000084FF0000B21F021
:1011E0000701AC46ACE8C009ACE8C009ACE8C009EE
:1011F000ACE8C0098D46704770B5C468A50713D028
:10120000650211D4B2F5807F09D0B2F5007F06D017
:10121000B2F5806F08D1012300F1240106E05D1EC4
:101220006FF07F46B54201D3012070BD0161C361FB
:10123000416024F470611143C160002070BD000062
:101240002DE9F0410C4607461646104600F06EF8B0
:101250002078611C61280AD0722802D077283CD1FE
:1012600002E00125002405E00225042402E0082410
:1012700048F2020511F8010B2B2806D0622809D08C
:1012800011F8010C74280AD00BE045F0030544F076
:101290000204EFE745F0040544F00104EAE744F0F6
:1012A000100438462146FFF74EFF411C15D000219F
:1012B000316171604FF40071F560F1617061200778
:1012C00004D530460222002100F0DAF8306D40F0FB
:1012D000010030653046BDE8F0810020FBE72DE9D4
:1012E000F0410D460646104C206DC10704D0410860
:1012F00004D020F00104F7E722460EE05420FEF768
:10130000FFFF07000ED0206D47F001010843542174
:1013100020653846FFF72EFA3A4629463046BDE8A2
:10132000F0418DE70020D6E7600800202DE9F04766
:1013300004464FF000094FF0FF37C568D4E9048632
:10134000A80707D0204600F04BF93046FFF705FF0D
:10135000002802DA3846BDE8F087280502D5404665
:10136000FEF7FDFF4C212046FFF704FA206D20F028
:10137000010020654846EEE710B50446AFF3008053
:101380002046BDE81040FEF795BF002801D000F0D0
:1013900071B8704710B500F081F9BDE81040FFF753
:1013A000F4BF000010B5012805D0002103A000F013
:1013B0005BF9012010BD09A1F8E70000534947522D
:1013C000544D454D3A204F7574206F662068656115
:1013D00070206D656D6F7279000000003A204865DD
:1013E0006170206D656D6F727920636F72727570B8
:1013F000746564004FF0013C50F8042B51F8043B35
:101400009A4221D1A2EB0C03934313EACC1317D1D8
:1014100050F8042B51F8043B9A4215D1A2EB0C036F
:10142000934313EACC130BD150F8042B51F8043B2F
:101430009A4209D1A2EB0C03934313EACC13DBD0FD
:101440004FF00000704700BFD01A01BAB1FA81F125
:1014500001F0180122FA01F0CB40C1F12001DBB20A
:10146000C0B2C01A2CFA01F3D11A914311EAC31188
:10147000E6D1704701491820ABBEFEE72600020006
:101480002DE9F041044616460D464769007B80076A
:101490002ED03846FFF776FE50BB3EB3012E02D069
:1014A000022E25D104E0204600F038F905441DE065
:1014B0003846FFF775FEE168002841F01001E16051
:1014C00005DA204600F058F80120BDE8F081C90394
:1014D0000BD56268E16A914200D81146A2691144B5
:1014E0002269891A814200DD08460544002D01DA8F
:1014F0000220EAE7E16A6068E268814206D291036D
:10150000E06203D522F4003141F01002A669002701
:10151000AE4213DCE16A814201D90B4600E003468A
:1015200003EB060C2369ACEB030CAC4506DD8142F2
:1015300001D98C4600E084469C4505D1A760276010
:1015400042F02000A5620DE0AD1BE669AE1B8142B2
:10155000A66000D90846C01A281A20605819606091
:1015600022F0200003490840E060002084F8487021
:10157000ABE70000BFCFD7FFC16821F4001141F0F5
:101580008001C16000218160016070472DE9F04752
:10159000814614460E464FF0FF383248D5685769E9
:1015A000054209D03846A169FFF7F2FD002811DB9A
:1015B0002C48C0430540E5602B4632464946384634
:1015C000FFF7D1FDA16920F00042B21A11440028B2
:1015D000A16103D02046FFF7CFFF4046BDE8F0876A
:1015E00070B504460569C06A6168884200D808463B
:1015F000E16821F42011E160C90312D5A84208D0A6
:101600002246411B2846FFF7C1FF10B14FF0FF30C3
:1016100070BD0020E562C4E90150E06820F480302C
:10162000E060002070BD10B50446C06820F02000C6
:10163000E060A16AA06988420DD02046FFF7D0FF84
:10164000E06820F4405040F01000E060A06AA06123
:101650002069E062606044F24001E0688843E06035
:1016600010BD00001000020070B505460C460A20AF
:1016700000E06D1C00F04BF835B128780028F8D157
:1016800002E0641C00F043F814B120780028F8D17F
:10169000BDE870400A2000F03AB8000010B50146DD
:1016A00002A0FFF7E1FF012010BD0000534947529F
:1016B000545245443A2052656469726563743A2015
:1016C00063616E2774206F70656E3A200000000021
:1016D00010B5431C02E010F8011B71B18107FAD16B
:1016E0004FF0013202C88C1A8C4314EAC211F9D0AF
:1016F000C01A0A0603D0C01E10BDC01A10BD0A04CD
:1017000001D0801E10BD0902FCD0401E10BD08B5DE
:1017100069468DF800000320ABBE08BD10B5014638
:10172000C268900703D0900607D5886A0AE0FFF7E1
:1017300035FB01210160881E10BD8B694868184483
:101740000B69C01A91F848301BB191F84910401A42
:1017500010BD1103FCD50028FADD401E10BD5FEA64
:10176000400C08BF91F0000F4FEA8C234FEAC122D2
:1017700043EA51514FEA1C5018BF00F5F0404FEAC0
:10178000300018BF41F000415FEA6C5C00F0298036
:10179000BCF1FF3F08BF40F080407047130C06BF0C
:1017A00012044FF0100C4FF0000C130E04BF120285
:1017B0000CF1080C130F04BF12010CF1040C930F71
:1017C00004BF92000CF1020CD30F04BF52000CF1C5
:1017D000010C11464FF00002A0F11F00A0EB0C001D
:1017E000704711F0004F08BF704731F000413FF4DF
:1017F000D5AF0B0C06BF09044FF0100C4FF0000CD6
:101800000B0E04BF09020CF1080C0B0F04BF0901F9
:101810000CF1040C8B0F04BF89000CF1020CCB0FF0
:1018200004BF49000CF1010CCCF12003A0EB0C002B
:1018300022FA03F302FA0CF241EA030100F101007B
:10184000704720F07F4C80EA030023F07F47ACEB29
:10185000070303F57C5300F0004003F1FF032DE97B
:1018600080494FEA154B09B44FEA144325EA0B4E61
:1018700024EA03480FF2042606EB132749083E78B2
:101880005FEA320203FB0667C7F5000707FB06F6AF
:101890004FEA54374FEAD64606F1020607FB066CBC
:1018A000CCF1005C4FEA1C472CEA074C07FB06F41E
:1018B0000CFB06F504EB15464FEA961634BF0020E4
:1018C0004FF000404FEAD13706FB07FC4FEA1C4CB3
:1018D0000CFB0BF7D21B03FB0CF761EB07010CFBB6
:1018E0000EF7B0EB074072EB17420CFB08F734BF62
:1018F000A2EB0742B2EB074261EB17414FEA0C44FF
:101900004FEA910706FB07FC4FEA1C4C0CFB0BF758
:10191000B0EBC74072EB573203FB0CF734BFA2EBBE
:10192000C742B2EBC74261EB57310CFB0EF7B0EB8D
:10193000C70072EB57720CFB08F734BFA2EBC7026B
:10194000B2EBC70261EB5771039F4FEA816141EA35
:10195000921104EBCC044FEAD1374FEA826206FBC6
:1019600007FC42EA90124FEA80604FEA1C4C0CFBE5
:101970000BF7D21B03FB0CF761EB07010CFB0EF717
:10198000B0EB074072EB17420CFB08F734BFA2EB39
:101990000742B2EB074261EB17414FEA8C554FEA21
:1019A000910704EB9C2406FB07FC4FEA1C4C0CFB44
:1019B0000BF7B0EBC74072EB573203FB0CF734BFA9
:1019C000A2EBC742B2EBC74261EB57310CFB0EF7FB
:1019D000B0EBC70072EB57720CFB08F734BFA2EBF9
:1019E000C702B2EBC70261EB577115EB4C254FEA0A
:1019F000816141EA92114FEA82624FEAD13742EAAD
:101A0000901206FB07FC44F100044FEA80604FEAA5
:101A10001C4C0CFB0BF7D21B03FB0CF761EB070113
:101A20000CFB0EF7B0EB074072EB17420CFB08F70C
:101A300034BFA2EB0742B2EB074261EB174115EB53
:101A40001C154FEA813141EA92414FEA823242EA63
:101A500090424FEA80304FEA0C7644F1000448EAA5
:101A600003434EEA0B484FF0000EB2EB080C71EB4B
:101A7000030724BF624639464EEB0E0E4FF0000BB3
:101A80000018524149414BEB0B0BB2EB080C71EBC8
:101A900003077BF1000B24BF624639464EEB0E0E66
:101AA0004FF0000B0018524149414BEB0B0BB2EBCE
:101AB000080C71EB03077BF1000B24BF624639462B
:101AC0004EEB0E0E51EA020718BF46F0010616EB68
:101AD0000E7655F1000254F1000103D5BDE88901ED
:101AE000BDE80088BDE88901BDE80048B61952414B
:101AF00041EB0101A3F10103704780807F7E7D7C73
:101B00007B7A7978777676757473727171706F6E8F
:101B10006E6D6C6C6B6A6A6968686766666564643A
:101B2000636362616160605F5F5E5E5D5D5C5C5BC4
:101B30005B5A5A5959585857575656555555545433
:101B4000535352525251515050504F4F4F4E4E4D91
:101B50004D4D4C4C4C4B4B4B4A4A4A4949494848DD
:101B6000484747474746464645454544444444431D
:101B700043434342424242414141002B9C4630D4C0
:101B800077002BD01CB54FEA370703B44FF0100095
:101B90004FF01001BAF1000F06D0BCF1000FDCBF0E
:101BA00040F0080040F008014FF000000FBCBDE815
:101BB00010400BF1010BBBF1010F08BF5FEA1707E3
:101BC00022BF12F1010211F101014FF0004143F176
:101BD000000300F0004043EA00007047F9D35708C3
:101BE000D0E746EA064613F1400F4FEA16461FDDDE
:101BF00013F1200FDFBF16430A46002120335B425A
:101C0000BED0C3F1200746EA064602FA07F74FEABC
:101C1000164646EA0706C3F1200722FA03F201FA44
:101C200007F721FA03F14FF0000342EA0702A7E7A2
:101C300046EA020646EA06464FEA164646EA010624
:101C4000BCBF46EA0646360C4FF000034FF00002D8
:101C50004FF0000194E72DE9804C9A46934670B40A
:101C600091E8380007C831EA400C48BF34EA430C19
:101C700003D5FFF7E6FDFFF780FFF0BCBDE8008C61
:101C80002DE9804C9A46934670B491E8380007C815
:101C900010F0804F08BF13F0804F03D100F005F81B
:101CA000FFF76BFFF0BCBDE8008C20F07F4780EAB7
:101CB000030023F07F4C07EB0C03A3F57C5300F0EB
:101CC0000040A3F1FE0392F0000F00F0B38095F006
:101CD000000F00F077802DE901494FEA11404FEAEB
:101CE000144621EA004800FB06FC24EA064708FBEC
:101CF00006F607FB08F800FB07F718EB06484CEB65
:101D0000164C4FEA124B18EB07484FEA15464CEBBE
:101D1000174022EA0B4E0BFB06FC25EA06470EFB9A
:101D200006F607FB0EFE0BFB07F71EEB064E4CEB11
:101D3000164C4FF000061EEB074E4CEB174B18EB02
:101D40000B0840F1000018EB0E0B58EB000840F1B7
:101D500000008F1A4FF000013CBFC943661B14BF3F
:101D6000B5EB040C00213CBFC943F61B4FEA1744F6
:101D70004EEA8E0E27EA04454FEA1C4704FB076231
:101D80002CEA074C05FB07F70CFB05F604FB0CFCE3
:101D900016EB074642EB174216EB0C4642EB1C4291
:101DA0001BEB060658EB0202414146EA9E0601D5AE
:101DB000BDE80189B619524141EB0101A3F10103CC
:101DC000BDE801894FEA14454FEA114724EA054668
:101DD00021EA074C05FB07F406FB07F70CFB06F1AD
:101DE00005FB0CFC11EB074144EB17444FEA12478B
:101DF00011EB0C4144EB1C4422EA074C05FB07F2B3
:101E000006FB07F70CFB06F605FB0CFC16EB07467A
:101E100042EB174216EB0C4642EB1C456A1854F194
:101E2000000148BF7047B619524141EB0101A3F1CF
:101E30000103704795F0000F37D04FEA11424FEA87
:101E4000144721EA024624EA074C02FB07F106FB8D
:101E500007F70CFB06F402FB0CFC14EB074441EB08
:101E600017414FEA154714EB0C4441EB1C4125EA9E
:101E7000074C02FB07F506FB07F70CFB06F602FB17
:101E80000CFC16EB074645EB174516EB0C4645EBED
:101E90001C42121951F1000148BF7047B619524156
:101EA00041EB0101A3F1010370474FEA14454FEAEA
:101EB000114724EA054621EA074C05FB07F106FB1A
:101EC00007F70CFB06F24FF0000605FB0CFC12EBCB
:101ED000074241EB174112EB0C4251EB1C4148BF4A
:101EE0007047921841EB0101A3F101037047FEE72F
:101EF00010B501F0DAFA11490968114BC1F302215A
:101F0000104A012404290BD00F490C600C68002CE6
:101F1000FCD10D4908390B60096891420AD0FEE7EF
:101F20000A498C608C68002CFCD10B6009689142D6
:101F300000D0FEE701F02CFB10BD0000002004E003
:101F4000C2A507F4CDB5E8B5084C025800300240F0
:101F5000704710B5040002D0607910B106E001208E
:101F600010BD00202071204600F004F801206071AF
:101F7000002010BD08B500680649884208D106480F
:101F8000016841F480510160006800F480500090C5
:101F900008BD0000003002403038024070B50446F1
:101FA00000F036F90546601C02D00448007804446D
:101FB00000F02EF9401BA042FAD370BDE0060020CD
:101FC0002DE9F84FDFF8F8A10022012403254FF096
:101FD0000F090AF1040BAAF1040E00BF0B6804FA02
:101FE00002F63340B34270D10F7907F00307012F97
:101FF00001D0022F16D187684FEA420805FA08FC83
:1020000027EA0C07D1F80CC00CFA08FC4CEA070CC4
:10201000C0F808C04768B7430E79C6F3001696406B
:102020003E4346600E79F643B6070AD0C7684FEACA
:10203000420C05FA0CF6B7438E6806FA0CF63E43DE
:10204000C6600E7906F00306022E10D1D60800EB0A
:102050008608D8F8206057074FEAD76C09FA0CF7C2
:10206000BE430F6907FA0CF73743C8F820700668BB
:102070004FEA420C05FA0CF7BE430F7907F003074D
:1020800007FA0CF7374307604E6816F4403F1CD040
:102090004C4E376847F480473760366822F00307B4
:1020A00006F480460096484E07EB060CDCF80868FC
:1020B00097073F0F09FA07F826EA0806DFF80C81B0
:1020C000404503D14FF0000841E072E0DFF80081A5
:1020D000404502D14FF0010839E0DFF8F880404573
:1020E00002D14FF0020832E0DFF8EC80404502D127
:1020F0004FF003082BE0DFF8E480404502D14FF0B9
:10210000040824E0DFF8D880404502D14FF00508EC
:102110001DE0DFF8D080404502D14FF0060816E000
:10212000DFF8C480404502D14FF007080FE0DFF828
:10213000BC80404502D14FF0080808E0DFF8B080CD
:10214000404502D14FF0090801E04FF00A0808FAB3
:1021500007F848EA0608CCF80888DAF8006057461D
:10216000D1F804C09E435FEACC2C00D51E433E60EC
:10217000DBF800605F46D1F804C09E435FEA8C2C18
:1021800000D51E433E60DEF800607746D1F804C0FB
:102190009E435FEA8C3C00D51E433E60084F083FDB
:1021A0003E68D1F804C09E435FEACC3C00D51E4394
:1021B0003E60521C102AFFF411AFBDE8F88F0000FA
:1021C000083C014044380240003001400000024019
:1021D0000004024000080240000C024000100240CF
:1021E0000014024000180240001C0240002002407F
:1021F00000240240426921EA02030A4043EA024104
:10220000816170470AB1816170470904FBE70000F2
:102210000148806870470000E0060020024881689D
:102220000278114481607047E00600200B4810B529
:10223000016841F400710160016841F4806101604E
:10224000016841F480710160032000F061F80F2003
:1022500000F006F800F024F8002010BD003C024019
:1022600070B50D4D04464FF47A712878B1FBF0F04B
:102270000A490968B1FBF0F000F036FB48B9102CB0
:1022800007D200222146501E00F022F800206C6088
:1022900070BD012070BD0000E0060020EC060020AB
:1022A0000A4808B5016841F480410160006800F403
:1022B000804000900548001F016841F08051016096
:1022C000006800F08050009008BD000044380240D3
:1022D000F0B40E4B1B680C46C3F30223C3F1070591
:1022E000042D00D90425191D072901D2002300E07F
:1022F000DB1E012606FA05F1491E214099409E4049
:10230000761E16403143F0BC00F02FBF0CED00E00C
:10231000064900F0070208684FF6FF03184040EA3C
:102320000220034A10430860704700000CED00E0F3
:102330000000FA052DE9F8431748016841F0805183
:1023400001600068154F00F08050012600903E6447
:10235000FFF75EFF05464FF47A78114C05E000BFA9
:10236000FFF756FF401B40450DD86068C003F7D506
:102370007E64FFF74DFF0546464607E0FFF748FF3E
:10238000401BB04202D90320BDE8F8836068800397
:10239000F4D50020F8E700004038024000000E426B
:1023A000007000402DE9F0470E46050065D0DFF8CB
:1023B0001481D8F80000F7B200F00F00B04207D245
:1023C00088F80070D8F8000000F00F00B04254D137
:1023D00028683D4C810712D5400703D5206840F49A
:1023E000E05020602878000703D5206840F4604062
:1023F00020602068A96820F0F00008432060287859
:10240000C0072DD0304968680839012812D0022849
:1024100013D0032811D00968890700292DDA216813
:1024200021F0030101432160FFF7F2FE814641F2F2
:10243000883A0EE009688903EFE709688901ECE74B
:10244000FFF7E6FEA0EB0901514502D90320BDE8E4
:10245000F0872068696800F00C00B0EB810FEFD1C5
:10246000D8F80010404601F00F01B14207D90770BB
:10247000006800F00F00B04201D00120E7E72878A3
:10248000400705D52068E96820F4E0500843206043
:102490002878000706D52068296920F4604040EAC2
:1024A000C100206000F038F82168084AC1F3031128
:1024B000515CC8400649086006480068FFF7D0FE36
:1024C0000020C4E7003C024008380240CC54000819
:1024D000EC060020E406002004480549006809686D
:1024E000044AC1F38221515CC8407047EC060020C9
:1024F00008380240DC5400080448054900680968AF
:10250000044AC1F34231515CC8407047EC060020D8
:1025100008380240DC540008154810B5006810F077
:102520000C02144813D01449042A0FD0082A0ED1E3
:102530000F4C241F2268236802F03F025B0207D57C
:102540002068C0F38810A0FB010106E0084610BD1A
:102550002168C1F38811A1FB00010023FDF726FFCC
:102560002168C1F30141491C4900B0FBF1F010BDE5
:10257000083802400024F40040787D012DE9F84F2E
:1025800004006ED02078DFF84C93C007A9F1040551
:102590004AD009F104000168C1F38101012908D082
:1025A0000068C0F3810002280AD1D9F80000400277
:1025B00006D52868800337D560680028E1D033E06D
:1025C0006068B0F5803F10D0B0F5A02F286810D01B
:1025D00020F480302860286820F48020286060681B
:1025E000A8B1FFF715FE06460DE0286840F48030DC
:1025F000F4E740F480202860F7E700BFFFF708FE0B
:10260000801B642873D828688003F7D50CE0FFF797
:10261000FFFD064605E000BFFFF7FAFD801B6428BA
:10262000F0D828688003F7D42078DFF8AC828007E0
:102630004FF0000A3ED5A748001D016811F00C0FAD
:1026400008D00068C0F3810002280BD1D9F800003F
:10265000400207D42868800716D5E068012800D119
:1026600012E033E1E068B8B10120C8F80000FFF7DC
:10267000CFFD064605E000BFFFF7CAFD801B02281C
:10268000C0D828688007F7D52868216920F0F800AD
:1026900040EAC10028600DE0C8F800A0FFF7B8FDCF
:1026A000064604E0FFF7B4FD801B02281FD8286807
:1026B0008007F7D42078000722D5864F87486169C4
:1026C000703771B101210160FFF7A2FD064604E0F9
:1026D000FFF79EFD801B022809D838688007F7D5D0
:1026E0000EE0C0F800A0FFF793FD064605E082E08B
:1026F000FFF78EFD801B02287DD838688007F7D44D
:102700002078400768D5DFF8CCB100270BF13C0BEF
:10271000DBF80000C0000BD4DBF8001041F0805162
:10272000CBF80010DBF80000012700F0805000908B
:102730006B4E3068C00510D4306840F48070306053
:10274000FFF766FD009005E0FFF762FD0099401A73
:10275000022850D83068C005F6D55E4EA0686C36A9
:1027600001280FD00528306810D020F0010030601B
:10277000306820F004003060A068B8B1FFF748FD71
:1027800000900FE0306840F00100F4E740F00400F2
:102790003060F7E7FFF73CFD0099411A41F28830BD
:1027A000814266D830688007F4D50EE0FFF730FD2F
:1027B000009007E0FFF72CFD0099411A41F28830A4
:1027C000814256D830688007F4D42FB1DBF800106E
:1027D00021F08051CBF80010A069C8B33D49091D14
:1027E0000968C1F3810102294AD00228504607D066
:1027F000C8F8600000E03CE0FFF70AFD04463BE05B
:102800004746C8F86000FFF703FD064605E000BF35
:10281000FFF7FEFC801B02282BD828688001F7D424
:10282000D4E907010843A16A2E4A490802EB014195
:10283000626A41EA8211084394F82C1040EA01616F
:10284000C9F8001001203866FFF7E2FC044606E0F4
:102850003EE000BFFFF7DCFC001B022809D8286817
:102860008001F7D534E000BFFFF7D2FC001B02283F
:1028700002D90320BDE8F88F28688001F4D427E04E
:102880000128F7D0D9F80000E26900F480019142F4
:102890001CD1226A00F03F01914217D147F6C07166
:1028A000626A0140B1EB821F10D1A26A4FF0FF3380
:1028B00000F4403103EB5202B1EB024F06D194F821
:1028C0002C1000F07060B0EB016F01D00120D1E757
:1028D0000020CFE70438024000004742800E474204
:1028E000007000400000FFFF10B5401EB0F1807F77
:1028F00001D3012010BD4FF0E02460610F2160176B
:1029000000F033FC0020A06107202061002010BDF2
:1029100070B590F83C20012A32D0012480F83C4068
:10292000022280F83D2003685A689D6822F07006F4
:102930000A6832435A60134B02689A4214D0B2F1CB
:10294000804F11D0104B9A420ED0104B9A420BD0B0
:102950000F4B9A4208D00F4B9A4205D00E4B9A4229
:1029600002D00E4B9A4204D1496825F080031943E6
:10297000916080F83D40002180F83C10084670BD11
:10298000022070BD0000014000040040000800402B
:10299000000C0040000401400040014000180040CD
:1029A00010B5040003D094F83D0010B107E00120F9
:1029B00010BD002084F83C00204600F01FF80220E3
:1029C00084F83D00211D206800F05AFA012084F8A7
:1029D000460084F83E0084F83F0084F8400084F804
:1029E000410084F8420084F8430084F8440084F8ED
:1029F000450084F83D00002010BD000008B50068C7
:102A00000649884208D10648016841F00101016089
:102A1000006800F00100009008BD000000000140C7
:102A20004438024090F83D10012901D00120704740
:102A3000022180F83D1000681149884214D0B0F19D
:102A4000804F11D00F4988420ED00F4988420BD0D9
:102A50000E49884208D00E49884205D00D49884267
:102A600002D00D49884204D1816801F0070106298E
:102A700003D0016841F001010160002070470000AF
:102A8000000001400004004000080040000C00402D
:102A900000040140004001400018004070B50446A9
:102AA00090F83C000025012817D0012684F83C60EE
:102AB000022084F83D002068826822F0770222F428
:102AC0007F4282600868502838D00DDC20284FD023
:102AD00005DC90B3102811D14AE0022070BD3028E7
:102AE00046D040280AD13BE060282FD070280DD076
:102AF000B0F5805F03D0B0F5005F12D0012584F8F7
:102B00003D60002084F83C00284670BDCB68D1E9C8
:102B10000121206800F018FA2068816841F07701EF
:102B200009E0CB68D1E90121206800F00DFA2068A6
:102B3000816841F480418160E1E719E0CA68496831
:102B4000206800F013FA5021206806E0CA6849683E
:102B5000206800F01CFA6021206800F0FFF9CEE741
:102B6000CA684968206800F001FA40212068F4E74B
:102B7000226801461046F0E770B5040004D094F8CE
:102B80003D00002510B106E0012070BD84F83C50E6
:102B9000204600F023F8242084F83D002068C16816
:102BA00021F40051C160204600F004FA2068016958
:102BB00021F4904101612068416921F02A014161BD
:102BC0002068C16841F40051C1602564202084F868
:102BD0003D0084F83E00002070BD000010B586B0B6
:102BE000044614216846FDF7C5FD14492068884253
:102BF00021D113480021026842F0100202600068EF
:102C000000F0100005900E481438026842F00102EE
:102C10000260006800F0010005904FF4C060009071
:102C20000220CDE9010103200390072004906946AA
:102C30000448FFF7C5F906B010BD000000100140C0
:102C400044380240000002402DE9F843044690F861
:102C50003D001F4616460D4620284CD1C5B1BEB1D9
:102C600094F83C00012846D0012084F83C004FF045
:102C70000008C4F84080212084F83D00FFF7C8FA1E
:102C8000A6848146E684A068B0F5805F03D004E0A6
:102C90000120BDE8F883206928B12E465FF00005C9
:102CA00084F83C800EE00026FAE78021204600F000
:102CB00007FAA0B9AEB116F8010B21684860E08CA4
:102CC000401EE084E08C4B464FF000020097002845
:102CD000EBD14FF04001204600F0F2F930B1032073
:102CE000D7E735F8020BC0F30800E6E7202084F8A8
:102CF0003D000020CDE70220CBE7FEE770B586B0AF
:102D000014216846FDF736FD12480024016841F0A1
:102D100001010160016801F001010591016841F0C4
:102D20004001016000680C4E00F040004FF4005577
:102D30000590224629463046FFF764FA01200095A7
:102D4000CDE90104694630460394FFF739F906B02E
:102D500070BD0000303802400018024010B586B047
:102D60000024174800940194029403940494134996
:102D700005940160B321C0E901144FF6FF71C0E969
:102D8000031444618461FFF70BFE08B172B6FEE7DD
:102D90004FF48050009069460948FFF77FFE08B164
:102DA00072B6FEE7049404A905480594FFF7B0FD48
:102DB000002801D072B6FEE706B010BD0000014049
:102DC00054070020FEE7FEE770477047FFF726BA7A
:102DD00030B593B030216846FDF7CCFC14210CA827
:102DE000FDF7C8FC20480025016841F080510160D2
:102DF000006800F0805011901C48016841F4404187
:102E000001600068022400F440401190012003900A
:102E100010200490009406940820CDE90750B420B7
:102E2000CDE9090404200B906846FFF7A7FB08B121
:102E300072B6FEE7FFF77EFA08B172B6FEE70CA99C
:102E40000F2081E831004FF4A0500F904FF48050D4
:102E5000109005210CA8FFF7A5FA002801D072B642
:102E6000FEE713B030BD0000403802400070004063
:102E70000248016841F470010160704788ED00E08C
:102E8000F0B50268254C264D264E274F274B4FF0B4
:102E9000804CA04209D0604507D0A84205D0B0427E
:102EA00003D0B84201D0984204D122F0700E4A6893
:102EB00042EA0E02A0421BD0604519D0A84217D0AA
:102EC000B04215D0B84213D0984211D0184DA84244
:102ED0000ED0184DA8420BD0174DA84208D0174D60
:102EE000A84205D0164DA84202D0164DA84203D1E3
:102EF00022F44075CA682A434D6922F080022A43B1
:102F000002608A68C2620A688262A04201D0984266
:102F100001D10969016301214161F0BD0000014057
:102F20000004004000080040000C00400004014084
:102F300000400140004401400048014000180040AA
:102F4000001C00400020004010B5846842EA0322C3
:102F500024F47F440A432243826010BD826822F039
:102F600070020A4342F007018160704710B5036A9E
:102F7000046A24F001040462846924F0F00444EA41
:102F8000021423F00A020A438461026210BD10B5E4
:102F9000036A23F0100303628369046A23F4704315
:102FA00043EA023224F0A00343EA01118261016284
:102FB00010BD000070B5044600680169E26821F4A4
:102FC0004051114301612169A068E26908436169C8
:102FD000114308432168CA6849F20C639A430243CB
:102FE000CA6020684169A26921F4407111434161BE
:102FF00031492068884202D03049884202D1FFF727
:103000007BFA01E0FFF768FAE269002319216425E1
:103010003226B2F5004F626828D0A0FB0101930F61
:103020009200FDF7C3F90146B0FBF5F06FF018020E
:10303000504301EB800006EB0010B0FBF5F000F010
:10304000F002B1FBF5F002EB0012B1FBF5F06FF00E
:103050001803584301EB800006EB0010B0FBF5F0BD
:1030600000F00F0021681044886070BDA0FB0101D2
:1030700092185B41FDF79AF90146B0FBF5F00201A9
:10308000B1FBF5F06FF01803584301EB800006EB3D
:10309000C000B0FBF5F000F0F80002EB4002B1FB1D
:1030A000F5F0584301EB800006EBC000B0FBF5F0F3
:1030B00000F00700D6E700000010014000140140B6
:1030C0002DE9F041984617460E460446069D27E036
:1030D000681C25D02DB1FFF79BF8A0EB0800A84293
:1030E0001ED920680C3050E8001F21F4D07140E850
:1030F0000012002AF5D12068143050E8001F21F09A
:10310000010140E80012002AF5D1202084F83D009A
:1031100084F83E00002084F83C000320BDE8F081E4
:103120002068006836EA000004D00020B842CFD002
:103130000020F3E70120F9E7FEE703B4019841001E
:10314000009850EAC12018BF04204A0D18BF40F073
:10315000010040F2FF72B2EB515F08BF40F0020085
:10316000012808BF052002B070470907090E002892
:1031700004DB00F1E02080F80014704700F00F003D
:1031800000F1E02080F8141D704700009FED3C0A1C
:1031900063E000BF92ED003A91ED004AD2ED012AC2
:1031A000D1ED013A04EE030A92ED022A91ED021AE2
:1031B000D2ED030AD1ED031A91ED044A03EEA20AFF
:1031C000D2ED043A92ED053AD1ED052A01EE020A5C
:1031D00092ED062A92ED071A01EEA00AD1ED061A29
:1031E000D1ED070A04EE230AD2ED083A91ED084A20
:1031F00002EE830AD2ED092A91ED093A01EE820A24
:1032000092ED0A2AD1ED0A1A00EE810A92ED0B1A0C
:10321000D1ED0B0A04EE230A91ED0C4AD1ED0D3AE3
:1032200003EE220A92ED0C3AD2ED0D2A01EE820A4B
:1032300092ED0E2AD1ED0F1A00EE810A91ED0E1AD1
:10324000D2ED0F0A40314032103B04EE030A03EE88
:10325000A20A01EE020A01EEA00A102B9AD206E0A1
:10326000F1EC010A5B1EB2EC011A00EE810A002BA0
:10327000F6D1D0ED000A30EE800A80ED000A7047EA
:1032800000000000F0B5059D25F0010403EB840665
:103290009FED460AEF085AE051F8044BD3ED002A9F
:1032A00004F0FF0C4FEA1C1E02EB8E0E0CF00F0C0C
:1032B0009EED002A02EB8C0C02EE220ADCED001AD5
:1032C00093ED012AC4F3072C4FEA1C1E02EB8E0E6D
:1032D00001EE820A9EED001AD3ED021A0CF00F0CDB
:1032E00002EB8C0CD3ED042A01EE210ADCED000A7E
:1032F00093ED031AC4F3074C4FEA1C1E02EB8E0E2B
:1033000000EE810A9EED002A0CF00F0C02EB8C0CF3
:10331000240EDCED001A02EE220A93ED052A4FEA94
:10332000141C02EB8C0C04F00F049CED001A01EE4F
:10333000820AD3ED061A02EB8404D4ED000A01EEF2
:10334000210A93ED071A20337F1E00EE810A002F19
:10335000A2D115E011F8014B93ED001A270902EBF9
:10336000870704F00F04D7ED000A02EB840400EE97
:10337000810AD4ED000A93ED011A083300EE810AA8
:10338000B342E7D3EC0709D0097893ED001A090995
:1033900002EB8101D1ED000A00EE810AD0ED000AB6
:1033A00030EE800A80ED000AF0BD00000000000051
:1033B000F0B59FED380A059DEE0851E051F8044B39
:1033C000D3ED002AE7B202EB8707D7ED001AC4F36A
:1033D000072702EB870701EEA20A97ED002AD3ED3B
:1033E000011AC4F3074702EB8707240E02EE210AF5
:1033F00097ED001AD3ED021A02EB8404D3ED042AF0
:10340000D4ED000A01EE210A93ED031A51F8044BA2
:10341000E7B202EB870700EE810A97ED002AC4F3BA
:10342000072702EB8707D7ED001A02EE220A93ED79
:10343000052AC4F3074702EB8707240E97ED001A0D
:1034400001EE820AD3ED061A02EB8404D4ED000AE1
:1034500001EE210A93ED071A2033761E00EE810A51
:10346000002EABD105F007040BE000BF11F8015BA3
:10347000641E02EB8505B3EC011AD5ED000A00EEDF
:10348000810A002CF2D1D0ED000A30EE800A80EDE6
:10349000000AF0BD0000000010B5416904468847ED
:1034A0002069A04200D1002010BD0120704700001B
:1034B0002DE9F04F002699B00F4605463446B04638
:1034C0004CE0A868C4EBC4038946426802EB83025F
:1034D0000E92806810AA00EBC40A2C480D9251F895
:1034E000082F406A120A62F31F200190D1F804B03D
:1034F0001C2105A8FDF73EF9D9F81800006800F076
:1035000001FB0590D9F81800806806905FEA0A0070
:1035100009D0C0F80080D9F80010416029B149886D
:1035200019B1012102E0404603E00021016001B928
:1035300000200790D9F818001C2205A940680990BE
:103540000198CDE90A0B0D98FDF7E2F81C2210A9AD
:103550000E98FDF7DDF8761CB6B2641C0DB1288814
:1035600000E00020A04205D9686818B150F8241086
:103570000029A6D11EB1A8684068386001E0C7F8EC
:10358000008019B03046BDE8F08F0000E454000818
:1035900070470000D3ED021A93ED000A93ED011A73
:1035A000F5EEC01A01EB8203F1EE10FA00EB820097
:1035B0002AD2B5EEC01AF1EE10FA11D0001F1B1F6F
:1035C0008B4220D3D3ED000AF4EEC00AF1EE10FADC
:1035D00003D870EEC00A60EE810AC0ED000AEDE784
:1035E0009FED161A0BE000BFD3ED000AF4EEC00AFF
:1035F000F1EE10FA01D8F0EE410AC0ED000A001F0A
:103600001B1F8B42F0D27047001F1B1F8B42FAD347
:10361000D3ED000AF4EEE10AF1EE10FA09D8F4EE67
:10362000C00AF1EE10FA06D870EEC00A60EE810A08
:1036300001E0F0EE610AC0ED000AE5E700000000DD
:10364000D3ED000A9FED0B1A01EB820300EB820021
:10365000001F1B1F8B420BD393ED000AB4EEE00A50
:10366000F1EE10FA01D8B0EE410A80ED000AEFE762
:10367000704700000000000030380A2801D2012005
:10368000704700207047000070B505460C4648881A
:103690006988884202D9AAB1002070BD92B1002683
:1036A0000CE000BF6168C6EBC6006A6801EB8001F0
:1036B00002EB80001C22FDF72BF8761C6088B042DC
:1036C000F0D801E0606868606088688020882880A1
:1036D000012070BD30B500B3F9B1F2B15268E2B16A
:1036E0000F4C1368A34203D00260012913D014E0E9
:1036F0000023121D07E000BF52F82350A54204D05A
:1037000040F823505B1C8B42F6D38B4205D152F814
:103710002300A04201D1012030BD002030BD0000B7
:10372000DECAFAA170B50D46060014461AD0CCB117
:10373000104600F08DFA00B16088A84212D1002333
:10374000042109E0C3EBC302606801EB82028058E8
:1037500020B146F823005B1CAB42F3D3AB4201D14E
:10376000012070BD002070BD0349884201D10120B5
:103770007047002070470000DECAFAA12DE9FE4F15
:1037800092468946040003D0A08D20B1256B03E04A
:103790000020BDE8FE8F00250020E082A082207B73
:1037A000C043800702D030221121DCE0B9F1000FC4
:1037B00061D0D5B32888C0B3D9F818000026D0F856
:1037C000008056E0A868006800EB0610019052D017
:1037D00058B3C6EBC600029009EB800001210090AF
:1037E00000F040FADBF81830596888421AD800987F
:1037F000DBF80C208069D768D0F80CC0674511D180
:103800009768D0F808C067450CD15268406882427A
:1038100008D1186800F066F90746584601F046F8E6
:10382000874203D2182212219DE024E0DBF8180021
:10383000006800F067F9029920F07E4259F82100F3
:1038400020F07E40824201D01922ECE700984068C7
:1038500088B100988069006878B14146404500D23F
:1038600008468046DDE900105A4600F08FF8761CC5
:103870002DB1288804E01722D5E72122D3E70020C4
:10388000B04206D9686820B150F826B0BBF1000FED
:1038900098D1BAF1000F74D0A08D012806D9256BFC
:1038A0000C3503D0288808B1002658E0182259E0CA
:1038B000A868006800EB061B3BD0BBF1000F38D0B6
:1038C000C6EBC60001900AEB80000121009000F0D9
:1038D000C9F9D9F8183059688842E7D80098D9F85A
:1038E0000C208069D768D0F80CC06745DED1976896
:1038F000D0F808C06745D9D1526840688242D5D116
:10390000186800F0EFF80746484600F0CFFF8742FE
:10391000CCD3D9F81800006800F0F4F820F07E420B
:1039200001985AF8200020F07E40824203D01922EC
:1039300018E0172216E0009840680028F9D0009897
:103940008069006868B14146404500D2084680461B
:103950004A465846009900F019F8761C3DB128886F
:1039600006E021221321204600F0C7FC10E70020CA
:10397000B04206D9686820B150F82690B9F1000F1E
:1039800096D1A4F814804FF0010002E770B5044608
:103990000E461546104600F089FF0146A060B0694A
:1039A00000684843E060716861607268104420609C
:1039B000A8690268920007D4D0E90223D21A114400
:1039C0008160A9696068C86070BD70B50646002551
:1039D00021E0B068006800EB051488690268920075
:1039E00005D58168A268606801F036F908E0D0E981
:1039F0000223D21A63681A44826089696068C860C9
:103A0000D4E90101084460602168884201D3E0687C
:103A1000081A6D1C60600EB1308800E00020A842DA
:103A200006D97068002803D050F825100029D0D19D
:103A300070BD2DE9F0410646002529E0B168836993
:103A4000096801EB051419688900D4E901120DD544
:103A5000986801F001F9D4E9010108446060216827
:103A6000884201D3E068081A606010E00A4462608E
:103A700021688A4201D3E2688A1A62608169D1E9C9
:103A80000237DB1B1A448A6080696168C1606D1C63
:103A90000EB1308800E00020A84206D970680028E6
:103AA00003D050F825000028C8D1BDE8F08179B1D5
:103AB000C0F3C6125143C91DC0F3415321F00701A1
:103AC000D940C0F34340042804D0082807D104E0BB
:103AD0000020704701EB021101E001EB0221C91D3A
:103AE000C808704759B1C0F3C6125143C91D21F02F
:103AF0000701C0F34150C140C91DC80870470020EC
:103B00007047000070B54021C0F34342022A1BD029
:103B1000394A20F07E439C1A0D014E0193425FD03A
:103B200029DC364AA3EB0204934259D019DC402B1E
:103B300057D0403BB3F580234CD0802B37D0AB42DD
:103B40004FD12E49C91F4CE0C0F3C051C905C0F385
:103B5000C61241EAC21100F07F02114341F48021F4
:103B60003FE0A4F54074F93C1FD00F2C35D0B4428F
:103B700037D1234935E0234BE21A9C421BD00BDCA2
:103B8000214AA2181DD0802A19D0AA4211D0A2F52C
:103B90008062073A25D117E00F2A18D0B2420CD024
:103BA0001A4BDA421DD11A491BE01A4919E01A4989
:103BB00017E01A4915E01A4913E01A4911E01A49A9
:103BC0000FE0194980390CE01449C91D09E0144976
:103BD0000F3106E01049803903E00E490F3100E053
:103BE000114600F080420A4300F00051114300F0FA
:103BF0000060084370BD0000400406004704040054
:103C00004010040000047E00000482FF00F801FF61
:103C10004010820140080400C000040040048400F9
:103C20004008840040108400C000840070B5144631
:103C30000D46064600F00CF840B17068C5EBC501B2
:103C400010EB810002D04460012070BD002070BDE7
:103C500028B1416819B1408808B10120704700209F
:103C60007047000010B502002AD0164B1068B3EB65
:103C7000C01F03D0144BB3EBC01F01D1012000E0E3
:103C8000002008429069406802D01F3020F01F00D9
:103C90005369D9B2012900D000211C0A07E001298B
:103CA00007D0936953F821305843491C1AB1234671
:103CB00002E00123F8E700238B42F0DC002800DC5F
:103CC000002010BD006000420060000208B509A19C
:103CD0000968009148B101789DF80020914204D113
:103CE00004226946FCF7E8FC08B1002008BD012069
:103CF00008BD0000038404842DE9F041C66B416BCC
:103D0000044600258163CEB1D9B10120226CB047B1
:103D10000CE00220226CB047A06BFFF7BDFB07460A
:103D20000320226CA16BB0476D1CA763A16B002917
:103D3000EFD106E0FFF7B0FB6D1CA063A06B00287D
:103D4000F8D12846BDE8F08103460020596B0029D0
:103D500008D0CB600A69401C8A4203D0002A01D0F7
:103D60001146F6E770472DE9F041446B002594B108
:103D7000012600272079C00707D0216A204611B10B
:103D80008847304600E0384605442069A04202D00A
:103D900008B10446EEE72846BDE8F0812DE9F04180
:103DA0008CB00C4600F0E0F805000DD064B10020A6
:103DB000E067686B60B1E16F491CE16701698142AE
:103DC00006D029B10846F6E700200CB0BDE8F08126
:103DD000E06F70B1A88D00B1286B04F13C01FFF7D2
:103DE00067FB208738B1A88D012807D9286B0C30D4
:103DF00005E0182228E01822122126E0002004F114
:103E00004001FFF755FB608730B105F124000746FC
:103E1000FFF71EFF18B10AE01822132115E03846FB
:103E2000FFF716FF18B1E88C08B113220CE005F17A
:103E30001C008046FFF70CFF58B94046FFF708FF0B
:103E400038B1E88B28B112221121284600F055FA2A
:103E5000BAE76868C4F88000FEF74AF82C48206189
:103E600000F07EFA606100F05FF8606200F0D6F862
:103E7000A062A86C00F07EFA206226A1606CFFF7B9
:103E800073FC50B126486064D5E90901C4E9140106
:103E9000D5E90701C4E9120138E0224807AE0FC88E
:103EA00086E80F001F491C2210316846FCF730FCE1
:103EB00007A8069004F160001C2269460646FCF73C
:103EC00027FC04F144001C2269460446FCF720FC50
:103ED0003846FFF7BDFE50B13846FFF7B9FE08B1CE
:103EE000A96A00E000211C223046FCF711FC404684
:103EF000FFF7AEFE50B14046FFF7AAFE08B1296AAF
:103F000000E000211C222046FCF702FC01205CE7B7
:103F10005C430008676574207265706F72740000FE
:103F2000DECAFAA110550008034810B50469FDF770
:103F3000DFFF204610BD0000E454000810B570B14A
:103F400069B162B1074C0460D1E90041C0E90141A7
:103F5000D2E90012C0E903120123184610BD002067
:103F600010BD0000DECAFAA110B518B1044A0168FC
:103F7000914200D000200446FDF7BAFF204610BD54
:103F80000001C0A130B44AB140B139B1074C136847
:103F9000A34206D130BC0C32FFF7C4BB30BC0020BA
:103FA000704730BC1C32FFF795BB0000DECAFAA197
:103FB00030B44AB140B139B1064C1368A34206D1BE
:103FC00030BC121DFFF7AEBB30BC0020704730BCC8
:103FD000FFF780BBDECAFAA1F8B50E46FFF7C4FFB3
:103FE00004000AD000270097A08D00B1206B69461D
:103FF000FFF75EFA050006D00BE01022114600F034
:104000007CF90020F8BD18221121204600F075F936
:10401000009706B135800098F8BD0000034810B540
:104020004469FDF765FF204610BD0000E454000818
:104030002DE9F04F89B00646DDE912104FF0000A75
:10404000554663F30705CDE9011361F30F2590464B
:10405000544660F317458346FFF727FA304F0100B7
:104060001CD0304800680123C0F30220042806D089
:104070002D48182202600268182A13D00BE02B4842
:104080001422836083680BB1521EFBD1826812B97F
:104090000068401C0AD00846FFF77AFAF86909B0B0
:1040A000BDE8F08F03600268002AFCD10846FFF7E4
:1040B0006FFAFDF71DFFE6B11D49C8F80010C6F8FC
:1040C000008000F03BFAB0B1FFF7A8FF8146C5F3CE
:1040D0000721E8B2002200F025FA0546C9F30721BE
:1040E00009F0FF00002200F01DFA854205D07C682F
:1040F0000BE0386AD3E73C6807E00EA00068009048
:104100006846FFF7E3FD10B9BC68C6F800A0DDE91A
:1041100001105A4600F006FAC8F848002046BEE7EB
:10412000E4540008002004E0084C0258003002402B
:104130000001C0A10384048410B5FFF715FF20B16E
:10414000BDE81040103000F0F3B90148806910BD9F
:10415000E45400082DE9F04F91B00C46FFF704FF3E
:10416000050013D0B4B13BA12068FFF7FDFA0600AB
:104170004FF0000B11D020680190D4E90301CDE984
:104180000401D4E90101CDE9020143E0002011B0AE
:10419000BDE8F08F1122102158E001212046D4F80B
:1041A00004A0FFF75FFD804604F11C00D4F82090C6
:1041B00001211090FFF756FD07461422274906A853
:1041C000FCF7A6FA0120B8F1000F02D0ADF81E00EE
:1041D00002E0ADF81EB0002408941FB1ADF826002F
:1041E000109802E0ADF826B000200A90B9F1000F57
:1041F00002D10FB1132206E0BAF1000F05D1B8F1D8
:10420000000F02D0122210211FE0142206A901A8DB
:10421000FCF77EFA86F00102144602A905F11C00A3
:10422000FFF732FA68B1224604A905F12400FFF72E
:104230002BFA40B10320E8602846FFF785FD2846A9
:10424000A5E7122200E013221621284600F055F8B7
:104250009CE70000696E6974000000003C5500088E
:1042600070B5FFF781FE041E08D0207B800706D4BE
:1042700010221121204600F040F8002070BD204699
:10428000FFF771FDE06B60B1656B55B1D4E90F329A
:104290002946002098472869A84202D008B105465F
:1042A000F4E7012070BD70B515460E46FFF75CFEC1
:1042B00004462A463146FFF761FA00281CD0A08D3B
:1042C00008B1256B00E00025012802D9266B0C36C9
:1042D0000DE000260BE02846FFF777FB2046FFF7AE
:1042E0000BFD3046FFF7A5FBE08A401CE082E08A28
:1042F000A18A8842EFD380B270BD002802D010306E
:1043000000F01EB97047F8B50E46FFF72DFE040009
:1043100007D000270097A08D012808D9206B0C300A
:1043200006E010221146FFF7E8FF0020F8BD00204C
:104330006946FFF7BDF8050005D118221121204676
:10434000FFF7DBFF009706B135800098F8BD00004D
:1043500010B5FDF7CDFD01A010BD0000000000006C
:10436000034810B5C468FDF7C3FD204610BD00002A
:10437000E45400080021020E62F30701020C62F30C
:104380000F21000A60F31741084670470246006893
:10439000010A012004E05368491E53F821305843B4
:1043A0000029F8D1704700001CB500230522CDE993
:1043B00000230123014AFFF73BFE1CBD340400200B
:1043C0002DE9F0430F468FB0164605460021FFF752
:1043D000EBFF804610F0FF0F0BD1684600F032F87B
:1043E00020B1A7B100240DF10C090CE0286800F001
:1043F0003DF80FB0BDE8F08357F824202146484629
:10440000FFF714FC641CBDF80E00A042F4DC76B18A
:1044100000246F4607E000BF56F824202146381DCF
:10442000FFF704FC641CBDF80600A042F4DC6946FA
:10443000286800F049F818B9286800F017F8804695
:104440004046D6E71FB500280CD00749D1E9002324
:10445000CDE90023D1E90221CDE902216A4602A972
:10446000FFF76CFD04B010BD484F0008FFF764BEB5
:1044700030B5A3B00C460546FFF776FDFCB1F0B1B0
:10448000882210496846FCF743F9FFF761FF049062
:10449000FFF766FF0590FFF747FD0990FFF7BEFDA8
:1044A0000A9069462846FFF779FC002805D0882243
:1044B00069462046FCF72CF9012023B030BD0020CE
:1044C000FBE70000C04E00082DE9F0410D4606460E
:1044D000FFF740FE041E0DD0294600F06FFB074693
:1044E0002946204600F03EFB00EA07043046FFF76D
:1044F000B7FE2040BDE8F08110B90248024A0260D0
:10450000FFF76ABD340400200001C0A110B90248C1
:10451000024A0260FFF7F7BE340400200001C0A188
:10452000FFF7C1BE000640EA014040EA02207047A2
:10453000002201680270026008467047012070473F
:10454000037813F0FF0F01D000207047017001685D
:1045500062F31F2101600120704700002DE9F04F38
:104560002DED028B87B08069018809B1426800E0B7
:104570000022526832B109B1426800E0002252685C
:10458000156800E00025012902D942680C3200E0DC
:104590000022526842B1012902D942680C3200E07F
:1045A00000225268146800E00024022902D94268FF
:1045B000183200E0002252683AB1022902D942685A
:1045C000183200E0002252681268022993460BD983
:1045D000426812F1180F07D032F8183F012B03D9A7
:1045E000526812B1526800E000220492EA68E3685F
:1045F0004FF0000AD2F80480D3F80490D3E90223E4
:104600005A430092DBF818301A68C2F3C616C2F398
:104610004157FE400696032902D94668243600E039
:104620000026766856B1032902D94068243000E09C
:1046300000204068006808B1866900E00026C2F3E7
:104640004340042801D008280ED1DF685EB1D6E9C6
:104650000001FFF72CFAD6F80CA002465146384666
:1046600000F0FAFA00E0BA46DBF8140000999FED7A
:10467000358A40680390A0698468A86904EB8907BB
:104680008068029009FB01F004EB8000059051E086
:10469000DBF818008668049810B18069856800E02E
:1046A0000025BAF1000F35D00698042816D02EE068
:1046B00015B1B5EC010A01E0B0EE480A8DED010A32
:1046C000CDF800805246314601A8029BFEF7DAFD84
:1046D00003989DED010A0644A4EC010ABC42E7D30D
:1046E00022E015B1B5EC010A01E0B0EE480A8DED0B
:1046F000010ACDF800805246314601A8029BFEF720
:1047000057FE03989DED010A0644A4EC010ABC4241
:10471000E7D309E02B46324620460299CDE90089CD
:1047200000F012F804EB8904029907EB890701EB0A
:104730008800029005988442AAD307B0BDEC028B92
:10474000BDE8F08F000000002DE9F04F06462DED8A
:10475000028B81B09A46DDE90C98344606EB880757
:104760008B4615469FED168A0EE000BF8DED008A40
:104770004B465A4629466846FEF708FD9DED000A5D
:1047800005EB8905A4EC010ABC42EFD3BAF1000F96
:1047900011D000210DE000BF06EB81000AEB810281
:1047A00090ED000AD2ED000A491C30EE200A80ED9F
:1047B000000A4145F0D301B0BDEC028BBDE8F08F9B
:1047C0000000000070B505468069018809B14268A3
:1047D00000E00022526832B109B1426800E00022D4
:1047E0005268146800E00024012902D942680C32A2
:1047F00000E00022526842B1012902D940680C3021
:1048000000E000204068066800E00026E86988B102
:104810004068012804F108002CD0FFF7B7FD0246DC
:10482000E8698368A0698168B0698068BDE8704004
:10483000FEF7B0BEB0698668A069856804F108001B
:10484000FFF7A4FD05EB800106EB8000DFED100A09
:104850000BE000BF91ED000AB5EEC00AF1EE10FAD0
:1048600001D8B0EE600A80ED000A001F091FA942BE
:10487000F0D270BDFFF78AFD0246E8698368A0693F
:104880008168B0698068BDE87040FEF7D9BE00005D
:104890000000000013B54FF6FF730122694602487D
:1048A000FEF7D2F900981CBD9C0700200146C068A5
:1048B0004A698969C068D26809685043044A11404E
:1048C000A1F58022C03A01D1C01DC0087047000088
:1048D000FFFF7F012DE9F0412DED028BA6B00024F2
:1048E0002394FDF7A3FCFEF773FAFEF707FA5D4980
:1048F0005B4808600846FDF72CFB08B172B6FEE77E
:10490000FEF72CFA5948584901604FF4E131C0E9EB
:1049100001140C21C460C0E904418461C461FEF744
:104920002BF908B172B6FEE75148002224A90068AD
:10493000249023A8FFF744FD10F0FF0F4FF0FF383D
:1049400001D04CA059E069462398FFF791FD00285B
:1049500052D04FA00099FBF7A1FD53A00199FBF79E
:104960009DFD404C0F981C3C20611099616180694D
:10497000D0E90221436852A0FBF790FD606980698D
:10498000D0E90221436855A0FBF788FD0021239858
:10499000FFF7B2FD206100212398FFF7B7FD6061AA
:1049A000216904F108052F1D4D6047602F484838E4
:1049B000FEF738F89FED508A2C4E483E94ED000AE1
:1049C000C0EE080AC5ED000A3068406A6060D4E9AC
:1049D00004122398FFF7A4FD012811D02398FFF7B4
:1049E00045FD020AC1B245A0FBF758FD26B040467E
:1049F000BDEC028BBDE8F08146A0FBF74FFDF5E76B
:104A000097ED000A84ED060A3068406A6168411A31
:104A100046A0FBF743FDA06900F082F941EC100BC2
:104A200047A053EC102BFBF739FD4FF400514A48D7
:104A3000FDF7E0FBC820FDF7B1FA94ED000AF7EEB0
:104A4000000A464930EE200A10EE100A84ED000AF2
:104A50008842B3DD9FED420A84ED000AAEE7000014
:104A600000300240D8060020001001409C070020C2
:104A7000C8540008616920696E69745F616E645F83
:104A8000637265617465206572726F720A0000005E
:104A90004D6F64656C206E616D65202020202020A4
:104AA0003A2025730A0000004D6F64656C2073691D
:104AB000676E6174757265203A2025730A000000E4
:104AC000696E7075745B305D203A202825642C2057
:104AD00025642C202564290A000000006F7574707D
:104AE00075745B305D203A202825642C2025642CC9
:104AF000202564290A0000000000C8426169207274
:104B0000756E206572726F722025642C2025640AF0
:104B100000000000616920676574207265706F7223
:104B200074206572726F720A000000000A496E6696
:104B30006572656E63652074696D65733A256400FE
:104B40000A496E666572656E6365206F757470756F
:104B5000743A2566000000000018024000001D4461
:104B60000000000010B504460A4601211248FFF774
:104B700009FAC8B11048104A0168083201F13C0036
:104B80009060D0601032001D9060D0601032906054
:104B9000D06010329160D16010329060D0601032DD
:104BA00001209160D16010BD132230212046FFF713
:104BB000A4FB002010BD00006C03002010B50446CB
:104BC0000A4601212348FFF7F3F9D0B321496431A4
:104BD00001F11002086840F0804008601D4800683C
:104BE0008860C860116841F08041116000F14001A7
:104BF0009160D1601032116841F08041116000F184
:104C000080019160D1601032116841F080411160E3
:104C100000F590619160D1601032116841F08041DF
:104C2000116000F598619160D16002F1100100F50A
:104C3000A0600A68886042F080420A60C860012073
:104C400010BDFFE7122230212046FFF756FB00205F
:104C5000F6E7000070030020F0B588420ED0002A6D
:104C60000CD08318814210D999420ED2114403E02E
:104C700013F8012D01F8012D8342F9D8F0BD00BFD2
:104C800010F8013B01F8013B521E8B0701D0002AAE
:104C9000F6D1170911E000BF50F8046B7F1E50F8E1
:104CA000045B50F8084B50F8043C41F8046B41F8A1
:104CB000045B41F8084B41F8043C002FECD1C2F3EF
:104CC000810304E050F8044B41F8044B5B1E002BB9
:104CD000F8D102F0030204E010F8013B01F8013BB7
:104CE000521E002AF8D1F0BD10B500290AD008786C
:104CF000002807D005487844FCF77CFB002801D049
:104D0000002010BD0248784410BD00009609000044
:104D10008E0900000808A0F500114FEA3101704724
:104D200043004FEAD30C4FEA3C0C43401FBF4007FF
:104D30000CF1605113F0FE4F70471CF0006F03D16F
:104D400000200CF0004170470CF0004343EA507023
:104D500010B540EACC0000F00EF800BF0000009251
:104D60004FEA0001FFF7D6BF4FF000414FF00000BF
:104D7000A1F5002170470EF1020E2EF0030E5EF831
:104D8000044B244204D44FEA4102B2F17F4F11D8C0
:104D90004FEA4003B3F17F4F0CD80ED14FEAD07CDD
:104DA000B2F17F4F0CEB4C0C0CF1020C08BF4CEB3A
:104DB000D17C04E04FF0080C01E04FEAD17C0CEB11
:104DC0004C0324FA03F404F00704B4F1040C06D2F3
:104DD0000EEB840CBDE810404CF0010C6047DFE89E
:104DE0000CF0070802024FF00040A0F5800010BD53
:104DF0000846420018BFD2F1807288BF00F0004020
:104E000010BD4FF04070E1EE100A7047FBF760BE36
:104E1000040000009401002004000000D4010020E0
:104E200004000000180200200400000058020020C6
:104E3000040000009C0200205C5600083856000860
:104E40001C56000804560008000000000000000086
:104E50006856000808010000000000000000000083
:104E600000000000000000006101000000000000E0
:104E70000000000000000000000000000000000032
:104E80000000000000000000000000000000000022
:104E90000000000000000000000000000000000012
:104EA0000000000000000000000000000000000002
:104EB00000000000000000000000000000000000F2
:104EC0005C560008385600081C56000804560008B6
:104ED0000000000000000000685600080801000003
:104EE00000000000000000000000000000000000C2
:104EF0006101000000000000000000000000000050
:104F000000000000DECAFAA100000000000000005E
:104F10000000000000000000000000000000000091
:104F20000000000000000000000000000000000081
:104F30000000000000000000000000000000000071
:104F400000000000000000000000010084060020B6
:104F500000000100A0060020010000008000000009
:104F600001000000010000004004040000000000F7
:104F700000000000000000008000000001040000AC
:104F80000000000001000000040500000100000016
:104F90000100000040040440000000000000000088
:104FA00000000000040500000104000000000000F3
:104FB00000000000000000000000000000000000F1
:104FC000B9F30D3F6A63073F401881BD78BC0FBE3F
:104FD00038DBEF3EDD6FB6BEA68DEF3E148BF73E9D
:104FE0007864B4BE5DF4B1BE4C0E06BFDECB003DAE
:104FF00094F50CBFDCF8C0BE5510EC3ED4A16EBEDB
:10500000B0395CBF1E6157BE000000000000000008
:10501000C35D9F3E000000002B76A5BF15A167BFB2
:105020000000000000000000000000003FA8643EF7
:1050300000000000000000004DB06CBC000000004B
:105040002720D7BEC2E2C6BE001E07BE6EBD2F3EE1
:1050500074B2C23D54AEA3BE279FB73E41D9823E33
:1050600072153FBE6585933E4CBDA9BEB9AE74BEF8
:10507000E2C3613E90D49E3C608E51BE970CBEBE92
:10508000CDC3C13E99EC913EC06A933B442F9D3DF8
:10509000481E8DBEDA102B3E68257FBE02589EBE8C
:1050A0007C4A9FBEE248783E7EB6BEBE1BE3C3BECE
:1050B0006F97C23E8D12BA3E31BB8A3E03B2C33EE9
:1050C0004E6E20BD2862493E82CB9ABED4B4953D37
:1050D0003AC717BED331C23E5BE7833E3AA7673E6D
:1050E0005A046E3E16C23C3E0F16A9BE167709BE84
:1050F0007116D83E86C1333E835C3B3E6C14F13D55
:10510000B6C5B236CE71C9BD1AB6CEBE7548803EA0
:10511000459889BD17CDB43EAAD4C3BE61BFBDBEFC
:105120001154983E7CFAC2BEA0D485BEC39DD1BEA8
:10513000BA773D3E58E9583D0C3E603E089937BD70
:105140006D04C2BE946366BED648183EC04DC63CD0
:10515000FACA6ABE6FF9973E2B4EC4BEA9AA9B3EFF
:10516000C0818A3BA4B275BE48466E3D62387B3E24
:1051700041A0D13EB27A513EA35FBEBD40EE01BC1C
:105180007482AA3EE276B13E9C62AEBE3F829A3EF7
:10519000939F023E4983A43EEDE642BE0A2F89BE9C
:1051A000AC4EADBEA7DADB3EE0291C3C22C994BE62
:1051B0005EDECDBEF661383ED37B9DBD8087493D26
:1051C00070A99EBC2F14C1BE1416F03DF337CF3E1C
:1051D0004042E4BDD44BF53D14CFC63D33BEC2BE04
:1051E000B4C6C73DAACB69BEE48280BDCEF90EBE6F
:1051F000D8F56CBDA8CE90BD6774DABE9551D2BE0D
:105200006D3D72BE76176F3EB44BBE3D9D71CF3E75
:10521000B3CBAABE77B5A93E3C52DC3DD44BADBE64
:105220002204243E001F84BE8DB2A93E966A4CBE65
:1052300093DF9F3EEAAE6B3E3F3068BE7217353E4D
:1052400062284C3EF4EA85BEC924863E2248AFBEA1
:1052500024BF90BE6C03C23D666320BEBAFA66BE30
:105260009EE411BE9555CB3E000F24BBC89A2FBEBD
:10527000A4D5CD3DDE00103EE4D1D2BE1493E53D71
:10528000E6D33D3E8DDD8C3C3007B8BEF417E33DE0
:105290003A8FF53C8053A9BDB4E53D3EB3A8863EA8
:1052A000768E783E1C7560BE817BDC3E745D22BDCF
:1052B000B61F693E1F1786BEA89B6B3EC2A284BE66
:1052C0009C1800BFF1E367BD4D2CB53E18E9A6BDA3
:1052D0004D51ED3E332175BEFF85B6BEEA8381BFD9
:1052E0003606253ED467CBBD01D9CA3E2977133F88
:1052F00060DB5F3DAC702CBEC661E33E849FA5BD04
:10530000777FA5BE7F00E23EECACE9BDEE16183E0D
:105310005C5CEE3C14F5CABD1B65D13DA8D1A23D35
:105320001EAA44BED3DEC43E6EE4453E5771DBBECA
:105330000922923E45E1C1BE69B6103E843DCE3D94
:10534000869561BE40A7F5BBD926D43EB20C233E5C
:10535000BEA0F4BD4E622B3E5E58113EB8620DBE3B
:10536000F0D0003D6BF69C3E80991CBD328A783EA1
:10537000D42199BE69F3BBBE93557EBE51E66DBE86
:105380003EDE933EAE893EBE600C52BDA68B7E3E95
:10539000A4259DBDD871DFBDD939FE3EAD7FA03DAE
:1053A000B6EE04BE0E8C153E7CF9F3BDF07A4CBF10
:1053B000AC1D8E3D37258F3E77701E3C26B088BED3
:1053C000B22E113F01FA343D4905B4BEC9DC8FBE8F
:1053D000499EBDBE1C3F963D5048113FE0B1FD3D8A
:1053E0004095F8BC804602BBB0FD58BD10B4A3BECA
:1053F0008B25CBBEA0D8C2BD6EFD40BE265EAABE28
:105400002D6BC3BEF25D703EFB5DCDBEBC7FC1BDEA
:10541000314DD8BE681025BE507B9CBC310C9EBE61
:10542000CE91443E9F1EA63EF15195BE3B3AAE3E04
:10543000D26936BE00C660BED695A8BE807D9C3BB4
:105440000000000081E48ABDD6864E3C11CBD2BC60
:10545000F7C994BC9EC2B5BD00000000000000006A
:105460000000000071F18BBE9082EC3DABDBC2BD51
:1054700049B89CBC2BFEA5BE5A71D2BE00000000EC
:10548000FC573D3E5B40AC3D235245BECE49553DA9
:105490001259143E26BD1ABFC8866A3E7416033FD1
:1054A0006C5B1CBEF4C80F3FB266DE3FD7C410BFB2
:1054B000CC79AB3EF0D0883F192F9B3F9081133EB3
:1054C000BB4011BF00000000E0070020000000000A
:1054D00000000000010203040607080900000000A4
:1054E000010203043010000001100000021000004F
:1054F000080100000102000001050000101000007A
:105500003341000010100000010000000000000006
:105510000100000000000000010000000100000088
:105520004004040000000000000000000000000033
:10553000000000000104000000000000DECAFAA123
:10554000000000000000000000000000000000005B
:10555000040000080000000000000002000100003C
:105560001000000002400000000000A00000000049
:1055700005400000000000C8000000000C400000D2
:105580000000409C00000000194000000020BCBE4C
:105590000000000034400000BFC91B8E0000000462
:1055A000B5400000504BCFD06607E2CF01000000AD
:1055B0006C4100003E8251AADFEEA73401000000DA
:1055C000D9420000DCB5A0E23A301F97FFFFFFFF91
:1055D000B4450000FD25A0C8E9A3C14FFFFFFFFFB0
:1055E000FF3F00000000008000000000FF3F0000BF
:1055F00000000080000000003A7474003A747400E7
:105600003A7474004A616E202032203230323420E5
:1056100031363A35353A3233000000005475652092
:105620004A616E2020322031363A35313A31382005
:1056300032303234000000003037336136373832D0
:10564000333165636661396135636661333336379B
:1056500031353839386636360000000073696E5FC0
:105660006D6F64656C00000000000000A856000823
:1056700000000020FC060000E8010008C4580008F3
:10568000FC060020C4120000440200081C000000B8
:1056900043000000F8FFFFFF0C0000000E000000B8
:1056A0000F0000002E0000003201A904DA040429D2
:1056B000140A1110205A4004096220095AA0291C1A
:1056C000E92029186929092240E9A0691C0922C09A
:1056D00013F00414200C051B2098041AB40441296B
:1056E000288B80010C5A840C32025A880C415A9043
:1056F0000C1AD44429488129349AC4409AC8349A4F
:10570000CC0C5AD00C1AB83C29441A60809A7C847C
:105710008B04020C5A080C29845A0C0C415A140CA4
:105720001A9C402948A9849A48409A4C349A500CB3
:105730005A540C1A803C29441A28809A44849A8826
:10574000449A8C849A90449A98244B04050829041E
:10575000D4400404391C19131ACC3029205A80284B
:1057600009122C391C19131AF82C299C81131807BB
:105770001C20FC06A812035B200CA8411A44181A2E
:1057800028041A401829501A24085A300C1A3C08C8
:105790001A4804812D401082091899100B3C011001
:1057A00010092F5039F5092930A960011825DECAE2
:1057B000FAA112012BDC02EC12011A08F432021ACF
:1057C00054082B4806140119540101041B20020837
:1057D000197C1B2074343919591C190D391C1A30C5
:1057E000085A841C195C391C5A401C1A50085A94D7
:1057F0001C5A031C5A601C1A70085AA41C190F3931
:105800001C5A801C1A90085AB41C5A051C5AA01C19
:105810001AB0085AC41C5A061C5AC01C1AD0085A7E
:10582000D41C5A071C5AE01C1AF0085AE41C6A08D7
:10583000E05A01E019085AF41C6A09E0591C1A30B0
:10584000084B04041C6A0AE0591C1A50085A141C1C
:105850006A0BE0591C1A70081A241CD404010213A4
:10586000D00514205D451408104EFD080701011CE9
:1058700013C5471B08181C41DA04205AEC3C3A2097
:105880003CE14B0C063C7A283CE11A2820293C1AC2
:105890003020291B3280290869048B04050C1A402A
:1058A000F1C1392C19131A6444291C4BC04F6439B7
:1058B000682938191C1A741C012429608210D32409
:0458C000F4000000F0
:04000005080001AD41
:00000001FF
